{"abi":[{"type":"constructor","inputs":[{"name":"asset_","type":"address","internalType":"address"},{"name":"owner_","type":"address","internalType":"address"}],"stateMutability":"nonpayable"},{"type":"function","name":"asset","inputs":[],"outputs":[{"name":"","type":"address","internalType":"contract IWstETH"}],"stateMutability":"view"},{"type":"function","name":"authorizer","inputs":[],"outputs":[{"name":"","type":"address","internalType":"contract IDelegationAuthorizer"}],"stateMutability":"view"},{"type":"function","name":"availableYieldInStETH","inputs":[],"outputs":[{"name":"","type":"uint256","internalType":"uint256"}],"stateMutability":"view"},{"type":"function","name":"availableYieldInWstETH","inputs":[],"outputs":[{"name":"","type":"uint256","internalType":"uint256"}],"stateMutability":"view"},{"type":"function","name":"budgets","inputs":[{"name":"","type":"bytes32","internalType":"bytes32"}],"outputs":[{"name":"allocated","type":"uint128","internalType":"uint128"},{"name":"spent","type":"uint128","internalType":"uint128"},{"name":"active","type":"bool","internalType":"bool"},{"name":"parentBudgetId","type":"bytes32","internalType":"bytes32"},{"name":"manager","type":"address","internalType":"address"},{"name":"label","type":"string","internalType":"string"}],"stateMutability":"view"},{"type":"function","name":"childBudgetReserved","inputs":[{"name":"","type":"bytes32","internalType":"bytes32"}],"outputs":[{"name":"","type":"uint256","internalType":"uint256"}],"stateMutability":"view"},{"type":"function","name":"configureBudget","inputs":[{"name":"budgetId","type":"bytes32","internalType":"bytes32"},{"name":"parentBudgetId","type":"bytes32","internalType":"bytes32"},{"name":"manager","type":"address","internalType":"address"},{"name":"allocated","type":"uint128","internalType":"uint128"},{"name":"active","type":"bool","internalType":"bool"},{"name":"label","type":"string","internalType":"string"}],"outputs":[],"stateMutability":"nonpayable"},{"type":"function","name":"configureChildBudgetAsManager","inputs":[{"name":"parentBudgetId","type":"bytes32","internalType":"bytes32"},{"name":"budgetId","type":"bytes32","internalType":"bytes32"},{"name":"manager","type":"address","internalType":"address"},{"name":"allocated","type":"uint128","internalType":"uint128"},{"name":"active","type":"bool","internalType":"bool"},{"name":"label","type":"string","internalType":"string"}],"outputs":[],"stateMutability":"nonpayable"},{"type":"function","name":"currentPrincipalFloorWstETH","inputs":[],"outputs":[{"name":"","type":"uint256","internalType":"uint256"}],"stateMutability":"view"},{"type":"function","name":"deposit","inputs":[{"name":"amountWstETH","type":"uint256","internalType":"uint256"}],"outputs":[],"stateMutability":"nonpayable"},{"type":"function","name":"directSpendableRemaining","inputs":[{"name":"budgetId","type":"bytes32","internalType":"bytes32"}],"outputs":[{"name":"","type":"uint256","internalType":"uint256"}],"stateMutability":"view"},{"type":"function","name":"owner","inputs":[],"outputs":[{"name":"","type":"address","internalType":"address"}],"stateMutability":"view"},{"type":"function","name":"principalBaselineStETH","inputs":[],"outputs":[{"name":"","type":"uint256","internalType":"uint256"}],"stateMutability":"view"},{"type":"function","name":"principalBaselineWstETH","inputs":[],"outputs":[{"name":"","type":"uint256","internalType":"uint256"}],"stateMutability":"view"},{"type":"function","name":"rateConversionsAvailable","inputs":[],"outputs":[{"name":"","type":"bool","internalType":"bool"}],"stateMutability":"view"},{"type":"function","name":"receiptRegistry","inputs":[],"outputs":[{"name":"","type":"address","internalType":"contract IReceiptRegistry"}],"stateMutability":"view"},{"type":"function","name":"remainingBudget","inputs":[{"name":"budgetId","type":"bytes32","internalType":"bytes32"}],"outputs":[{"name":"","type":"uint256","internalType":"uint256"}],"stateMutability":"view"},{"type":"function","name":"setAuthorizer","inputs":[{"name":"authorizer_","type":"address","internalType":"address"}],"outputs":[],"stateMutability":"nonpayable"},{"type":"function","name":"setReceiptRegistry","inputs":[{"name":"receiptRegistry_","type":"address","internalType":"address"}],"outputs":[],"stateMutability":"nonpayable"},{"type":"function","name":"spendFromBudget","inputs":[{"name":"budgetId","type":"bytes32","internalType":"bytes32"},{"name":"recipient","type":"address","internalType":"address"},{"name":"amountWstETH","type":"uint128","internalType":"uint128"},{"name":"taskId","type":"bytes32","internalType":"bytes32"},{"name":"receiptHash","type":"bytes32","internalType":"bytes32"},{"name":"evidenceHash","type":"bytes32","internalType":"bytes32"},{"name":"resultHash","type":"bytes32","internalType":"bytes32"},{"name":"metadataURI","type":"string","internalType":"string"}],"outputs":[],"stateMutability":"nonpayable"},{"type":"function","name":"syncPrincipalBaselineStETH","inputs":[{"name":"newBaselineStETH","type":"uint256","internalType":"uint256"}],"outputs":[],"stateMutability":"nonpayable"},{"type":"function","name":"syncPrincipalBaselineWstETH","inputs":[{"name":"newBaselineWstETH","type":"uint256","internalType":"uint256"}],"outputs":[],"stateMutability":"nonpayable"},{"type":"function","name":"totalBudgetAllocated","inputs":[],"outputs":[{"name":"","type":"uint256","internalType":"uint256"}],"stateMutability":"view"},{"type":"function","name":"unallocatedYieldInWstETH","inputs":[],"outputs":[{"name":"","type":"uint256","internalType":"uint256"}],"stateMutability":"view"},{"type":"function","name":"withdrawPrincipal","inputs":[{"name":"amountWstETH","type":"uint256","internalType":"uint256"},{"name":"recipient","type":"address","internalType":"address"}],"outputs":[],"stateMutability":"nonpayable"},{"type":"event","name":"AuthorizerUpdated","inputs":[{"name":"authorizer","type":"address","indexed":true,"internalType":"address"}],"anonymous":false},{"type":"event","name":"BudgetConfigured","inputs":[{"name":"budgetId","type":"bytes32","indexed":true,"internalType":"bytes32"},{"name":"parentBudgetId","type":"bytes32","indexed":true,"internalType":"bytes32"},{"name":"manager","type":"address","indexed":true,"internalType":"address"},{"name":"label","type":"string","indexed":false,"internalType":"string"},{"name":"allocated","type":"uint128","indexed":false,"internalType":"uint128"},{"name":"active","type":"bool","indexed":false,"internalType":"bool"}],"anonymous":false},{"type":"event","name":"BudgetSpent","inputs":[{"name":"budgetId","type":"bytes32","indexed":true,"internalType":"bytes32"},{"name":"receiptHash","type":"bytes32","indexed":true,"internalType":"bytes32"},{"name":"taskId","type":"bytes32","indexed":true,"internalType":"bytes32"},{"name":"ruleId","type":"bytes32","indexed":false,"internalType":"bytes32"},{"name":"executor","type":"address","indexed":false,"internalType":"address"},{"name":"recipient","type":"address","indexed":false,"internalType":"address"},{"name":"amount","type":"uint256","indexed":false,"internalType":"uint256"},{"name":"evidenceHash","type":"bytes32","indexed":false,"internalType":"bytes32"},{"name":"resultHash","type":"bytes32","indexed":false,"internalType":"bytes32"},{"name":"metadataURI","type":"string","indexed":false,"internalType":"string"}],"anonymous":false},{"type":"event","name":"Deposited","inputs":[{"name":"from","type":"address","indexed":true,"internalType":"address"},{"name":"wstETHAmount","type":"uint256","indexed":false,"internalType":"uint256"},{"name":"newPrincipalBaselineStETH","type":"uint256","indexed":false,"internalType":"uint256"},{"name":"stEthPerTokenSnapshot","type":"uint256","indexed":false,"internalType":"uint256"}],"anonymous":false},{"type":"event","name":"PrincipalBaselineSynced","inputs":[{"name":"previousBaselineStETH","type":"uint256","indexed":false,"internalType":"uint256"},{"name":"newBaselineStETH","type":"uint256","indexed":false,"internalType":"uint256"}],"anonymous":false},{"type":"event","name":"PrincipalBaselineWstETHSynced","inputs":[{"name":"previousBaselineWstETH","type":"uint256","indexed":false,"internalType":"uint256"},{"name":"newBaselineWstETH","type":"uint256","indexed":false,"internalType":"uint256"}],"anonymous":false},{"type":"event","name":"PrincipalWithdrawn","inputs":[{"name":"recipient","type":"address","indexed":true,"internalType":"address"},{"name":"wstETHAmount","type":"uint256","indexed":false,"internalType":"uint256"},{"name":"newPrincipalFloorWstETH","type":"uint256","indexed":false,"internalType":"uint256"}],"anonymous":false},{"type":"event","name":"ReceiptRegistryUpdated","inputs":[{"name":"receiptRegistry","type":"address","indexed":true,"internalType":"address"}],"anonymous":false},{"type":"error","name":"BudgetExceeded","inputs":[]},{"type":"error","name":"BudgetManagerUnauthorized","inputs":[]},{"type":"error","name":"ChildBudgetReservationExceeded","inputs":[]},{"type":"error","name":"EmptyReceiptHash","inputs":[]},{"type":"error","name":"InactiveBudget","inputs":[]},{"type":"error","name":"InvalidBaseline","inputs":[]},{"type":"error","name":"InvalidBudgetHierarchy","inputs":[]},{"type":"error","name":"OnlyOwner","inputs":[]},{"type":"error","name":"ParentBudgetExceeded","inputs":[]},{"type":"error","name":"ParentBudgetMissing","inputs":[]},{"type":"error","name":"PrincipalWithdrawalExceeded","inputs":[]},{"type":"error","name":"PrincipalWouldBeTouched","inputs":[]},{"type":"error","name":"RateConversionsUnavailable","inputs":[]},{"type":"error","name":"TransferFailed","inputs":[]},{"type":"error","name":"Unauthorized","inputs":[]},{"type":"error","name":"ZeroAmount","inputs":[]}],"bytecode":{"object":"0x60e0806040523461012557604081611fe2803803809161001f8285610129565b8339810103126101255780610042602061003b61005794610160565b9201610160565b6001600160a01b03821660805260a052610174565b60c052604051611dd3908161020f82396080518181816102be0152818161048f015281816105c30152818161089301528181610a9d01528181611000015281816114d2015281816116490152818161174d01528181611c090152611ca1015260a051818181610147015281816102500152818161042001528181610786015281816107d501528181610ebd01528181610f830152611126015260c051818181610280015281816104500152818161060301528181610730015281816108190152818161144a015261160a0152f35b5f80fd5b601f909101601f19168101906001600160401b0382119082101761014c57604052565b634e487b7160e01b5f52604160045260245ffd5b51906001600160a01b038216820361012557565b5f809160405160208101906301afd7c160e11b825260048152610198602482610129565b51915afa3d15610206573d906001600160401b03821161014c57604051916101ca601f8201601f191660200184610129565b82523d5f602084013e5b1580156101fb575b6101f6576020818051810103126101255760200151151590565b505f90565b5060208151106101dc565b6060906101d456fe60806040526004361015610011575f80fd5b5f5f3560e01c8063058a628f1461110b578063214a6a18146110ed5780633368f8991461104957806337a64c9f1461102f57806338d52e0f14610feb57806347e3206e14610f5b57806358f9403114610f3e57806367c241ee14610ea25780637441041a146109b3578063884e17f3146107b55780638da5cb5b146107705780639da1144614610755578063a3ec1a9914610718578063b6b55f251461057f578063c30fd5f814610564578063c9a2e6f314610409578063d09edf31146103e0578063d9a7e366146103b6578063ea996b2f14610239578063ebf9c6e71461021a578063eeb64e31146101fc578063f1823baa146101de578063f99996b2146101b7578063fabaa28d146101945763fd249b501461012d575f80fd5b346101915761013b3661131d565b959695949093919291907f00000000000000000000000000000000000000000000000000000000000000006001600160a01b031633036101825761017f96976117f8565b80f35b635fc483c560e01b8752600487fd5b80fd5b503461019157806003193601126101915760206101af611608565b604051908152f35b5034610191578060031936011261019157546040516001600160a01b039091168152602090f35b50346101915780600319360112610191576020600354604051908152f35b50346101915780600319360112610191576020600254604051908152f35b50346101915760203660031901126101915760206101af600435611572565b5034610191576020366003190112610191576004357f00000000000000000000000000000000000000000000000000000000000000006001600160a01b031633036103a7577f0000000000000000000000000000000000000000000000000000000000000000610357576040516370a0823160e01b81523060048201526020816024817f00000000000000000000000000000000000000000000000000000000000000006001600160a01b03165afa90811561039c578391610366575b5081116103575760035490806003556004546103106114b7565b10610348577faabe1d7cfaf9e682f1bccf091c0fbfa5d7f370b5d9dfde436fcefd9d0f3826009160409182519182526020820152a180f35b63d0733fcf60e01b8352600483fd5b630a9211eb60e11b8252600482fd5b90506020813d602011610394575b816103816020938361122d565b8101031261039057515f6102f6565b5f80fd5b3d9150610374565b6040513d85823e3d90fd5b635fc483c560e01b8252600482fd5b50346101915760203660031901126101915760406020916004358152600683522054604051908152f35b50346101915780600319360112610191576001546040516001600160a01b039091168152602090f35b5034610191576020366003190112610191576004357f00000000000000000000000000000000000000000000000000000000000000006001600160a01b031633036103a7577f000000000000000000000000000000000000000000000000000000000000000015610555576040516370a0823160e01b81523060048201526020816024817f00000000000000000000000000000000000000000000000000000000000000006001600160a01b03165afa801561039c578390610521575b6104d09150611bdc565b81116103575760025490806002556004546104e96114b7565b10610348577f3a9f8971b04816987a392fffedb0f56c86a60a0e13934d9430d7e2b452dd45569160409182519182526020820152a180f35b506020813d60201161054d575b8161053b6020938361122d565b81010312610390576104d090516104c6565b3d915061052e565b6304689d6560e41b8252600482fd5b503461019157806003193601126101915760206101af611556565b5034610191576020366003190112610191576004358015610709576040516323b872dd60e01b815233600482015230602482015260448101829052602081606481867f00000000000000000000000000000000000000000000000000000000000000006001600160a01b03165af190811561039c5783916106da575b50156106cb577f0000000000000000000000000000000000000000000000000000000000000000156106815761063b61063382611bdc565b60025461138a565b80600255610647611c7a565b90604051928352602083015260408201527f91ede45f04a37a7c170f5c1207df3b6bc748dc1e04ad5e917a241d0f52feada360603392a280f35b61068d8160035461138a565b8060035560405191825260208201528160408201527f91ede45f04a37a7c170f5c1207df3b6bc748dc1e04ad5e917a241d0f52feada360603392a280f35b6312171d8360e31b8252600482fd5b6106fc915060203d602011610702575b6106f4818361122d565b81019061147f565b5f6105fb565b503d6106ea565b631f2a200560e01b8252600482fd5b503461019157806003193601126101915760206040517f000000000000000000000000000000000000000000000000000000000000000015158152f35b503461019157806003193601126101915760206101af6114b7565b50346101915780600319360112610191576040517f00000000000000000000000000000000000000000000000000000000000000006001600160a01b03168152602090f35b5034610191576040366003190112610191576004356107d26111af565b907f00000000000000000000000000000000000000000000000000000000000000006001600160a01b031633036109a457801561099557610811611448565b8111610986577f00000000000000000000000000000000000000000000000000000000000000001561095b5761084681611bdc565b60025480821161094c579061085a91611397565b6002555b60405163a9059cbb60e01b81526001600160a01b039283166004820181905260248201839052926020908290604490829088907f0000000000000000000000000000000000000000000000000000000000000000165af1908115610941578491610922575b5015610913576004546108d46114b7565b106103485760407f217ea3989b9d3112d2133a930216f444b7fbcaeaa4d5bc0220d099fdc928e71e91610905611448565b82519182526020820152a280f35b6312171d8360e31b8352600483fd5b61093b915060203d602011610702576106f4818361122d565b5f6108c3565b6040513d86823e3d90fd5b631de2eac560e31b8552600485fd5b600354808211610977578161096f91611397565b60035561085e565b631de2eac560e31b8452600484fd5b631de2eac560e31b8352600483fd5b631f2a200560e01b8352600483fd5b635fc483c560e01b8352600483fd5b503461039057610100366003190112610390576004356109d16111af565b90604435906001600160801b03821680920361039057606435926084359260a43560c43560e43567ffffffffffffffff811161039057610a159036906004016112ef565b9190928415610e93578715610e8457865f52600560205260405f209460ff60018701541615610e755785548060801c906001600160801b03610a57848461138a565b911610610e6657610a67896113a4565b8211610e57576001546001600160a01b031680610db657505f965b8715610da8576040516370a0823160e01b81523060048201527f00000000000000000000000000000000000000000000000000000000000000006001600160a01b03169290602081602481875afa908115610ce8575f91610d76575b50610ae7611448565b808210610cf357610af791611397565b8411610cf35783016001600160801b038111610d625781546001600160801b031660809190911b6fffffffffffffffffffffffffffffffff191617905560405163a9059cbb60e01b81526001600160a01b039098166004890181905260248901839052976020816044815f865af1908115610ce8575f91610d43575b5015610d34576020602491604051928380926370a0823160e01b82523060048301525afa908115610ce8575f91610d02575b50610bae611448565b11610cf3575f546001600160a01b031680610c29575b5091610c2393917fb2c904fe90aeb046eff9514de454ec41230a8d8cd77c4b40043ea3c9e13196e297969593604051978897885233602089015260408801526060870152608086015260a085015260e060c085015260e0840191611497565b0390a480f35b803b15610390575f604051809263019291ef60e21b82528c60048301528d60248301528960448301523360648301528a60848301528460a48301528b60c48301528560e483015286610104830152610140610124830152818381610c938c8c610144840191611497565b03925af18015610ce85715610bc4577fb2c904fe90aeb046eff9514de454ec41230a8d8cd77c4b40043ea3c9e13196e297969593919b5091610cd95f610c23969461122d565b5f9b9193959697509193610bc4565b6040513d5f823e3d90fd5b63d0733fcf60e01b5f5260045ffd5b90506020813d602011610d2c575b81610d1d6020938361122d565b8101031261039057515f610ba5565b3d9150610d10565b6312171d8360e31b5f5260045ffd5b610d5c915060203d602011610702576106f4818361122d565b5f610b73565b634e487b7160e01b5f52601160045260245ffd5b90506020813d602011610da0575b81610d916020938361122d565b8101031261039057515f610ade565b3d9150610d84565b6282b42960e81b5f5260045ffd5b6040516368d5575760e11b8152336004820152602481018b90526001600160a01b038a16604482015260648101849052633a20820d60e11b60848201524267ffffffffffffffff1660a482015290602090829060c49082905afa908115610ce8575f91610e25575b5096610a82565b90506020813d602011610e4f575b81610e406020938361122d565b8101031261039057515f610e1e565b3d9150610e33565b6372c05ae160e01b5f5260045ffd5b6350b2c4e160e01b5f5260045ffd5b630da21d9760e11b5f5260045ffd5b63b4479ffd60e01b5f5260045ffd5b631f2a200560e01b5f5260045ffd5b3461039057602036600319011261039057610ebb611199565b7f00000000000000000000000000000000000000000000000000000000000000006001600160a01b03163303610f2f575f80546001600160a01b0319166001600160a01b039290921691821781557fb90e31d61ce8bb057d7bd67965e9726c54b416651b756620c9d31f17298545069080a2005b635fc483c560e01b5f5260045ffd5b34610390575f366003190112610390576020600454604051908152f35b3461039057610f693661131d565b5f87815260056020526040902095969095919492939291337f00000000000000000000000000000000000000000000000000000000000000006001600160a01b031614159081610fd3575b50610fc457610fc2966117f8565b005b63124316a360e21b5f5260045ffd5b600301546001600160a01b0316331415905088610fb4565b34610390575f366003190112610390576040517f00000000000000000000000000000000000000000000000000000000000000006001600160a01b03168152602090f35b34610390575f3660031901126103905760206101af611448565b34610390576020366003190112610390576004355f52600560205260405f2060e08154602060ff60018501541693600281015490611096600460018060a01b03600384015416920161124f565b9160405196856001600160801b03899716875260801c85870152151560408601526060850152608084015260c060a084015280519182918260c0860152018484015e5f828201840152601f01601f19168101030190f35b346103905760203660031901126103905760206101af6004356113a4565b3461039057602036600319011261039057611124611199565b7f00000000000000000000000000000000000000000000000000000000000000006001600160a01b03163303610f2f57600180546001600160a01b0319166001600160a01b039290921691821790557ff3f625a7d9e02778afdfdf1bea978d6565840d408866c70f5d25aadf77021d705f80a2005b600435906001600160a01b038216820361039057565b602435906001600160a01b038216820361039057565b90600182811c921680156111f3575b60208310146111df57565b634e487b7160e01b5f52602260045260245ffd5b91607f16916111d4565b60c0810190811067ffffffffffffffff82111761121957604052565b634e487b7160e01b5f52604160045260245ffd5b90601f8019910116810190811067ffffffffffffffff82111761121957604052565b9060405191825f825492611262846111c5565b80845293600181169081156112cd5750600114611289575b506112879250038361122d565b565b90505f9291925260205f20905f915b8183106112b1575050906020611287928201015f61127a565b6020919350806001915483858901015201910190918492611298565b90506020925061128794915060ff191682840152151560051b8201015f61127a565b9181601f840112156103905782359167ffffffffffffffff8311610390576020838186019501011161039057565b9060c06003198301126103905760043591602435916044356001600160a01b038116810361039057916064356001600160801b038116810361039057916084358015158103610390579160a4359067ffffffffffffffff821161039057611386916004016112ef565b9091565b91908201809211610d6257565b91908203918211610d6257565b805f5260056020526001600160801b0361142a60405f20604051936113c8856111fd565b61141060048354938685168852602088019460801c855260ff600182015416151560408901526002810154606089015260018060a01b0360038201541660808901520161124f565b60a08601525f5260066020528260405f205491511661138a565b91511690808211156114425761143f91611397565b90565b50505f90565b7f0000000000000000000000000000000000000000000000000000000000000000156114795761143f600254611721565b60035490565b90816020910312610390575180151581036103905790565b908060209392818452848401375f828201840152601f01601f1916010190565b6040516370a0823160e01b81523060048201526020816024817f00000000000000000000000000000000000000000000000000000000000000006001600160a01b03165afa908115610ce8575f91611524575b50611513611448565b808211156114425761143f91611397565b90506020813d60201161154e575b8161153f6020938361122d565b8101031261039057515f61150a565b3d9150611532565b61155e6114b7565b600454808211156114425761143f91611397565b5f52600560205260405f206001600160801b0380604051611592816111fd565b6115da60048554958487168452602084019660801c875260ff600182015416151560408501526002810154606085015260018060a01b0360038201541660808501520161124f565b60a08201525116915116908181111561144257036001600160801b038111610d62576001600160801b031690565b7f0000000000000000000000000000000000000000000000000000000000000000156116d2576040516370a0823160e01b81523060048201526020816024817f00000000000000000000000000000000000000000000000000000000000000006001600160a01b03165afa8015610ce8575f9061169e575b61168a9150611bdc565b600254808211156114425761143f91611397565b506020813d6020116116ca575b816116b86020938361122d565b810103126103905761168a9051611680565b3d91506116ab565b5f90565b67ffffffffffffffff811161121957601f01601f191660200190565b3d1561171c573d90611703826116d6565b91611711604051938461122d565b82523d5f602084013e565b606090565b5f80604051602081019062b0e38960e81b82528460248201526024815261174960448261122d565b51907f00000000000000000000000000000000000000000000000000000000000000006001600160a01b03165afa61177f6116f2565b90806117ec575b6117d35750611793611c7a565b90670de0b6b3a7640000810290808204670de0b6b3a76400001490151715610d625781156117bf570490565b634e487b7160e01b5f52601260045260245ffd5b8051602080830193509082019190910312610390575190565b50602081511015611786565b9296959093949196835f52600560205260405f208054916001600160801b0383169060028301546001600160801b0361183085611d12565b92169460801c8510610e665788881480611bd3575b611bb957889082611bc8575b5050611bb95786611b365782611878835460801c885f52600660205260405f20549061138a565b11610e57578261188d61189292600454611397565b61138a565b8060045561189e6114b7565b10610cf3575b5460801c976040516118b5816111fd565b82815260208101998a526040810197151591828952606082018881526080830191600160a01b6001900316998a83526118ed876116d6565b9c876040519e8f906118ff908261122d565b5236888a011161039057878e818b6020830137016020015f905260a085019d8e52895f52600560205260405f2094516001600160801b03166001600160801b0319865416178555516001600160801b031661196f9085906001600160801b0382549181199060801b169116179055565b600184019051151560ff198254169060ff161790555160028301556003820190600160a01b600190039051166bffffffffffffffffffffffff60a01b825416179055600401985198895167ffffffffffffffff8111611219576119d282546111c5565b601f8111611ae5575b506020601f8211600114611a5e5781907f09e01d9a5aeccfc6a2c7dd24eaf17914fe879e6d3fb4db39f728f6932c95ba5298999a9b9c5f92611a53575b50508160011b915f199060031b1c19161790555b611a43604051948594606086526060860191611497565b91602084015260408301520390a4565b015190505f80611a18565b601f1982169b835f52815f209c5f5b818110611acd5750917f09e01d9a5aeccfc6a2c7dd24eaf17914fe879e6d3fb4db39f728f6932c95ba52999a9b9c9d91846001959410611ab5575b505050811b019055611a2c565b01515f1960f88460031b161c191690555f8080611aa8565b838301518f556001909e019d60209384019301611a6d565b818111156119db57825f5260205f20601f830160051c9060208410611b2e575b81601f9101920160051c03905f5b828110611b215750506119db565b5f82820155600101611b13565b5f9150611b05565b865f52600560205260405f2090611b4c82611d12565b15611baa578361188d611b6b928a5f52600660205260405f2054611397565b90546001600160801b03611b82838360801c61138a565b911610611b9b57865f52600660205260405f20556118a4565b6332f5bbcf60e11b5f5260045ffd5b6342b22e7960e01b5f5260045ffd5b63167daf1f60e01b5f5260045ffd5b14159050875f611851565b50881515611845565b5f806040516020810190632eca54bf60e21b825284602482015260248152611c0560448261122d565b51907f00000000000000000000000000000000000000000000000000000000000000006001600160a01b03165afa611c3b6116f2565b9080611c6e575b6117d35750611c4f611c7a565b90818102918183041490151715610d6257670de0b6b3a7640000900490565b50602081511015611c42565b5f8060405160208101906301afd7c160e11b825260048152611c9d60248261122d565b51907f00000000000000000000000000000000000000000000000000000000000000006001600160a01b03165afa611cd36116f2565b90158015611d07575b611cf85760208151918180820193849201010312610390575190565b6304689d6560e41b5f5260045ffd5b506020815110611cdc565b8054906001600160801b0382161591821592611d90575b508115611d81575b8115611d73575b8115611d5c575b8115611d49575090565b611d579150600401546111c5565b151590565b60038101546001600160a01b031615159150611d3f565b600281015415159150611d38565b600181015460ff169150611d31565b60801c151591505f611d2956fea264697066735822122040db30f86378e4483ba1d36f80ae6e835a854899100e8ec6942a588d7d01fea464736f6c63430008210033","linkReferences":{}},"methodIdentifiers":{"asset()":"38d52e0f","authorizer()":"d09edf31","availableYieldInStETH()":"fabaa28d","availableYieldInWstETH()":"9da11446","budgets(bytes32)":"3368f899","childBudgetReserved(bytes32)":"d9a7e366","configureBudget(bytes32,bytes32,address,uint128,bool,string)":"fd249b50","configureChildBudgetAsManager(bytes32,bytes32,address,uint128,bool,string)":"47e3206e","currentPrincipalFloorWstETH()":"37a64c9f","deposit(uint256)":"b6b55f25","directSpendableRemaining(bytes32)":"214a6a18","owner()":"8da5cb5b","principalBaselineStETH()":"eeb64e31","principalBaselineWstETH()":"f1823baa","rateConversionsAvailable()":"a3ec1a99","receiptRegistry()":"f99996b2","remainingBudget(bytes32)":"ebf9c6e7","setAuthorizer(address)":"058a628f","setReceiptRegistry(address)":"67c241ee","spendFromBudget(bytes32,address,uint128,bytes32,bytes32,bytes32,bytes32,string)":"7441041a","syncPrincipalBaselineStETH(uint256)":"c9a2e6f3","syncPrincipalBaselineWstETH(uint256)":"ea996b2f","totalBudgetAllocated()":"58f94031","unallocatedYieldInWstETH()":"c30fd5f8","withdrawPrincipal(uint256,address)":"884e17f3"},"id":22}