{"abi":[{"type":"constructor","inputs":[{"name":"name_","type":"string","internalType":"string"},{"name":"symbol_","type":"string","internalType":"string"},{"name":"decimals_","type":"uint8","internalType":"uint8"},{"name":"stEthPerToken_","type":"uint256","internalType":"uint256"}],"stateMutability":"nonpayable"},{"type":"function","name":"allowance","inputs":[{"name":"","type":"address","internalType":"address"},{"name":"","type":"address","internalType":"address"}],"outputs":[{"name":"","type":"uint256","internalType":"uint256"}],"stateMutability":"view"},{"type":"function","name":"approve","inputs":[{"name":"spender","type":"address","internalType":"address"},{"name":"value","type":"uint256","internalType":"uint256"}],"outputs":[{"name":"","type":"bool","internalType":"bool"}],"stateMutability":"nonpayable"},{"type":"function","name":"balanceOf","inputs":[{"name":"","type":"address","internalType":"address"}],"outputs":[{"name":"","type":"uint256","internalType":"uint256"}],"stateMutability":"view"},{"type":"function","name":"burn","inputs":[{"name":"from","type":"address","internalType":"address"},{"name":"value","type":"uint256","internalType":"uint256"}],"outputs":[],"stateMutability":"nonpayable"},{"type":"function","name":"decimals","inputs":[],"outputs":[{"name":"","type":"uint8","internalType":"uint8"}],"stateMutability":"view"},{"type":"function","name":"getStETHByWstETH","inputs":[{"name":"wstETHAmount","type":"uint256","internalType":"uint256"}],"outputs":[{"name":"","type":"uint256","internalType":"uint256"}],"stateMutability":"view"},{"type":"function","name":"getWstETHByStETH","inputs":[{"name":"stETHAmount","type":"uint256","internalType":"uint256"}],"outputs":[{"name":"","type":"uint256","internalType":"uint256"}],"stateMutability":"view"},{"type":"function","name":"mint","inputs":[{"name":"to","type":"address","internalType":"address"},{"name":"value","type":"uint256","internalType":"uint256"}],"outputs":[],"stateMutability":"nonpayable"},{"type":"function","name":"name","inputs":[],"outputs":[{"name":"","type":"string","internalType":"string"}],"stateMutability":"view"},{"type":"function","name":"setStEthPerToken","inputs":[{"name":"newValue","type":"uint256","internalType":"uint256"}],"outputs":[],"stateMutability":"nonpayable"},{"type":"function","name":"stEthPerToken","inputs":[],"outputs":[{"name":"","type":"uint256","internalType":"uint256"}],"stateMutability":"view"},{"type":"function","name":"symbol","inputs":[],"outputs":[{"name":"","type":"string","internalType":"string"}],"stateMutability":"view"},{"type":"function","name":"totalSupply","inputs":[],"outputs":[{"name":"","type":"uint256","internalType":"uint256"}],"stateMutability":"view"},{"type":"function","name":"transfer","inputs":[{"name":"to","type":"address","internalType":"address"},{"name":"value","type":"uint256","internalType":"uint256"}],"outputs":[{"name":"","type":"bool","internalType":"bool"}],"stateMutability":"nonpayable"},{"type":"function","name":"transferFrom","inputs":[{"name":"from","type":"address","internalType":"address"},{"name":"to","type":"address","internalType":"address"},{"name":"value","type":"uint256","internalType":"uint256"}],"outputs":[{"name":"","type":"bool","internalType":"bool"}],"stateMutability":"nonpayable"},{"type":"event","name":"Approval","inputs":[{"name":"owner","type":"address","indexed":true,"internalType":"address"},{"name":"spender","type":"address","indexed":true,"internalType":"address"},{"name":"value","type":"uint256","indexed":false,"internalType":"uint256"}],"anonymous":false},{"type":"event","name":"StEthPerTokenUpdated","inputs":[{"name":"oldValue","type":"uint256","indexed":false,"internalType":"uint256"},{"name":"newValue","type":"uint256","indexed":false,"internalType":"uint256"}],"anonymous":false},{"type":"event","name":"Transfer","inputs":[{"name":"from","type":"address","indexed":true,"internalType":"address"},{"name":"to","type":"address","indexed":true,"internalType":"address"},{"name":"value","type":"uint256","indexed":false,"internalType":"uint256"}],"anonymous":false}],"bytecode":{"object":"0x60a06040523461034f57610c988038038061001981610353565b92833981019060808183031261034f5780516001600160401b03811161034f5782610045918301610378565b602082015190926001600160401b03821161034f57610065918301610378565b9060408101519060ff8216820361034f576060015183519091906001600160401b038111610258575f54600181811c91168015610345575b602082101461023a57601f81116102d8575b50602094601f8211600114610277579481929394955f9261026c575b50508160011b915f199060031b1c1916175f555b82516001600160401b03811161025857600154600181811c9116801561024e575b602082101461023a57601f81116101cc575b506020601f821160011461016957819293945f9261015e575b50508160011b915f199060031b1c1916176001555b6080526003556040516108ce90816103ca8239608051816104ba0152f35b015190505f8061012b565b601f1982169060015f52805f20915f5b8181106101b45750958360019596971061019c575b505050811b01600155610140565b01515f1960f88460031b161c191690555f808061018e565b9192602060018192868b015181550194019201610179565b818111156101125760015f52601f820160051c7fb10e2d527612073b26eecdfd717e6a320cf44b4afac2b0732d9fcbe2b7fa0cf660208410610232575b81601f9101920160051c03905f5b828110610225575050610112565b5f82820155600101610217565b5f9150610209565b634e487b7160e01b5f52602260045260245ffd5b90607f1690610100565b634e487b7160e01b5f52604160045260245ffd5b015190505f806100cb565b601f198216955f8052805f20915f5b8881106102c0575083600195969798106102a8575b505050811b015f556100df565b01515f1960f88460031b161c191690555f808061029b565b91926020600181928685015181550194019201610286565b818111156100af575f8052601f820160051c7f290decd9548b62a8d60345a988386fc84ba6bc95484008f6362f93160ef3e5636020841061033d575b81601f9101920160051c03905f5b8281106103305750506100af565b5f82820155600101610322565b5f9150610314565b90607f169061009d565b5f80fd5b6040519190601f01601f191682016001600160401b0381118382101761025857604052565b81601f8201121561034f578051906001600160401b038211610258576103a7601f8301601f1916602001610353565b928284526020838301011161034f57815f9260208093018386015e830101529056fe6080806040526004361015610012575f80fd5b5f3560e01c908163035faf82146107455750806306fdde0314610673578063095ea7b3146105fa57806318160ddd146105dd57806323b872dd146104de578063313ce567146104a157806340c10f191461042757806370a08231146103ef57806395d89b41146102d15780639dc29fac14610240578063a9059cbb1461020f578063b0e38900146101b1578063b423a76114610165578063bb2952fc146101155763dd62ed3e146100c1575f80fd5b34610111576040366003190112610111576100da610789565b6100e261079f565b6001600160a01b039182165f908152600560209081526040808320949093168252928352819020549051908152f35b5f80fd5b346101115760203660031901126101115760035460043581810291811591830414171561015157602090670de0b6b3a764000060405191048152f35b634e487b7160e01b5f52601160045260245ffd5b34610111576020366003190112610111577f2090f7b8e3311ef44d703ab7b3921b749c91c6430e9b76bdd6729354adc74f566040600435600354908060035582519182526020820152a1005b3461011157602036600319011261011157600435670de0b6b3a7640000810290808204670de0b6b3a764000014901517156101515760035480156101fb5760209104604051908152f35b634e487b7160e01b5f52601260045260245ffd5b346101115760403660031901126101115761023561022b610789565b6024359033610812565b602060405160018152f35b34610111576040366003190112610111575f61025a610789565b7fddf252ad1be2c89b69c2b068fc378daa952ba7f163c4a11628f55a4df523b3ef60206024359260018060a01b031692838552600482526102a181604087205410156107cf565b83855260048252604085206102b78282546107b5565b90556102c5816002546107b5565b600255604051908152a3005b34610111575f366003190112610111576040515f6001548060011c906001811680156103e5575b6020831081146103d1578285529081156103b5575060011461035f575b50819003601f01601f191681019067ffffffffffffffff82118183101761034b5760408290528190610347908261075f565b0390f35b634e487b7160e01b5f52604160045260245ffd5b60015f9081529091507fb10e2d527612073b26eecdfd717e6a320cf44b4afac2b0732d9fcbe2b7fa0cf65b82821061039f57506020915082010182610315565b600181602092548385880101520191019061038a565b90506020925060ff191682840152151560051b82010182610315565b634e487b7160e01b5f52602260045260245ffd5b91607f16916102f8565b34610111576020366003190112610111576001600160a01b03610410610789565b165f526004602052602060405f2054604051908152f35b3461011157604036600319011261011157610440610789565b5f7fddf252ad1be2c89b69c2b068fc378daa952ba7f163c4a11628f55a4df523b3ef602060243593610474856002546107c2565b60025560018060a01b03169384845260048252604084206104968282546107c2565b9055604051908152a3005b34610111575f36600319011261011157602060405160ff7f0000000000000000000000000000000000000000000000000000000000000000168152f35b34610111576060366003190112610111576104f7610789565b6104ff61079f565b6001600160a01b0382165f81815260056020908152604080832033845290915290205492604435929183851061059f57610235948460018201610545575b505050610812565b61054e916107b5565b5f8281526005602090815260408083203380855290835292819020849055519283529092917f8c5be1e5ebec7d5bd14f71427d1e84f3dd0314c0f7b2291e5b200ac8c7c3b9259190a384808461053d565b60405162461bcd60e51b8152602060048201526016602482015275494e53554646494349454e545f414c4c4f57414e434560501b6044820152606490fd5b34610111575f366003190112610111576020600254604051908152f35b3461011157604036600319011261011157610613610789565b335f8181526005602090815260408083206001600160a01b03909516808452948252918290206024359081905591519182527f8c5be1e5ebec7d5bd14f71427d1e84f3dd0314c0f7b2291e5b200ac8c7c3b92591a3602060405160018152f35b34610111575f366003190112610111576040515f5f548060011c9060018116801561073b575b6020831081146103d1578285529081156103b557506001146106e75750819003601f01601f191681019067ffffffffffffffff82118183101761034b5760408290528190610347908261075f565b5f8080529091507f290decd9548b62a8d60345a988386fc84ba6bc95484008f6362f93160ef3e5635b82821061072557506020915082010182610315565b6001816020925483858801015201910190610710565b91607f1691610699565b34610111575f366003190112610111576020906003548152f35b602060409281835280519182918282860152018484015e5f828201840152601f01601f1916010190565b600435906001600160a01b038216820361011157565b602435906001600160a01b038216820361011157565b9190820391821161015157565b9190820180921161015157565b156107d657565b60405162461bcd60e51b8152602060048201526014602482015273494e53554646494349454e545f42414c414e434560601b6044820152606490fd5b60207fddf252ad1be2c89b69c2b068fc378daa952ba7f163c4a11628f55a4df523b3ef9160018060a01b031692835f52600482526108568560405f205410156107cf565b835f526004825260405f2061086c8682546107b5565b905560018060a01b031693845f526004825260405f2061088d8282546107c2565b9055604051908152a356fea2646970667358221220c0fc805b3d64119437654a17bb6aac6f1f8605c2e6315962c60e8f373e4ad32764736f6c63430008210033","linkReferences":{}},"methodIdentifiers":{"allowance(address,address)":"dd62ed3e","approve(address,uint256)":"095ea7b3","balanceOf(address)":"70a08231","burn(address,uint256)":"9dc29fac","decimals()":"313ce567","getStETHByWstETH(uint256)":"bb2952fc","getWstETHByStETH(uint256)":"b0e38900","mint(address,uint256)":"40c10f19","name()":"06fdde03","setStEthPerToken(uint256)":"b423a761","stEthPerToken()":"035faf82","symbol()":"95d89b41","totalSupply()":"18160ddd","transfer(address,uint256)":"a9059cbb","transferFrom(address,address,uint256)":"23b872dd"},"id":28}