{"abi":[{"type":"function","name":"assignAllowance","inputs":[{"name":"treasuryAddress","type":"address","internalType":"address"},{"name":"label","type":"string","internalType":"string"},{"name":"agent","type":"address","internalType":"address"},{"name":"amountWstETH","type":"uint128","internalType":"uint128"}],"outputs":[{"name":"budgetId","type":"bytes32","internalType":"bytes32"},{"name":"ruleId","type":"bytes32","internalType":"bytes32"}],"stateMutability":"nonpayable"},{"type":"function","name":"bootstrapTreasury","inputs":[{"name":"asset","type":"address","internalType":"address"},{"name":"principalAmountWstETH","type":"uint256","internalType":"uint256"},{"name":"label","type":"string","internalType":"string"},{"name":"initialAllowance","type":"tuple","internalType":"struct TreasuryOperatorFactory.InitialAllowance","components":[{"name":"label","type":"string","internalType":"string"},{"name":"agent","type":"address","internalType":"address"},{"name":"amountWstETH","type":"uint128","internalType":"uint128"},{"name":"enabled","type":"bool","internalType":"bool"}]}],"outputs":[{"name":"treasuryAddress","type":"address","internalType":"address"},{"name":"authorizerAddress","type":"address","internalType":"address"},{"name":"receiptRegistryAddress","type":"address","internalType":"address"}],"stateMutability":"nonpayable"},{"type":"function","name":"treasuryOperator","inputs":[{"name":"treasury","type":"address","internalType":"address"}],"outputs":[{"name":"operator","type":"address","internalType":"address"}],"stateMutability":"view"},{"type":"function","name":"withdrawPrincipal","inputs":[{"name":"treasuryAddress","type":"address","internalType":"address"},{"name":"amountWstETH","type":"uint256","internalType":"uint256"}],"outputs":[],"stateMutability":"nonpayable"},{"type":"event","name":"AllowanceAssigned","inputs":[{"name":"treasury","type":"address","indexed":true,"internalType":"address"},{"name":"operator","type":"address","indexed":true,"internalType":"address"},{"name":"agent","type":"address","indexed":true,"internalType":"address"},{"name":"budgetId","type":"bytes32","indexed":false,"internalType":"bytes32"},{"name":"ruleId","type":"bytes32","indexed":false,"internalType":"bytes32"},{"name":"amountWstETH","type":"uint128","indexed":false,"internalType":"uint128"},{"name":"label","type":"string","indexed":false,"internalType":"string"}],"anonymous":false},{"type":"event","name":"PrincipalWithdrawn","inputs":[{"name":"treasury","type":"address","indexed":true,"internalType":"address"},{"name":"operator","type":"address","indexed":true,"internalType":"address"},{"name":"amountWstETH","type":"uint256","indexed":false,"internalType":"uint256"}],"anonymous":false},{"type":"event","name":"TreasuryBootstrapped","inputs":[{"name":"operator","type":"address","indexed":true,"internalType":"address"},{"name":"treasury","type":"address","indexed":true,"internalType":"address"},{"name":"authorizer","type":"address","indexed":true,"internalType":"address"},{"name":"receiptRegistry","type":"address","indexed":false,"internalType":"address"},{"name":"principalAmountWstETH","type":"uint256","indexed":false,"internalType":"uint256"},{"name":"label","type":"string","indexed":false,"internalType":"string"}],"anonymous":false},{"type":"error","name":"ApproveFailed","inputs":[]},{"type":"error","name":"InvalidAgent","inputs":[]},{"type":"error","name":"InvalidAmount","inputs":[]},{"type":"error","name":"TransferFailed","inputs":[]},{"type":"error","name":"UnauthorizedOperator","inputs":[]}],"bytecode":{"object":"0x60808060405234601557613d2d908161001a8239f35b5f80fdfe6080806040526004361015610012575f80fd5b5f905f3560e01c90816371b810081461069b575080639220d3ed1461065b578063984f91b7146101875763e98e6f9a1461004a575f80fd5b3461015c57608036600319011261015c57610063610771565b9060243567ffffffffffffffff811161015f57610084903690600401610787565b604435929091906001600160a01b038416840361015c57606435946001600160801b038616860361015f576001600160a01b039081168083526020839052604083205490911633036101785760405163d09edf3160e01b815291602083600481855afa92831561016b57819361011b575b604061010f89898989336001600160a01b038b168a610823565b82519182526020820152f35b909192506020813d602011610163575b81610138602093836107b5565b8101031261015f5751906001600160a01b038216820361015c5750908060406100f5565b80fd5b5080fd5b3d915061012b565b50604051903d90823e3d90fd5b6326b9cdff60e11b8252600482fd5b503461015c57608036600319011261015c576101a1610771565b6024359060443567ffffffffffffffff8111610528576101c5903690600401610787565b92906064359067ffffffffffffffff821161065757813603608060031982011261065357831561064457604051610a738082019082821067ffffffffffffffff831117610630576020918391610b65833930815203019088f090811561062557604051611fe2968782019782891067ffffffffffffffff8a11176106115760409183916115d883396001600160a01b0316808a523060208b01529803019089f0928315610606576040516001600160a01b038516989061073e8082019067ffffffffffffffff8211838310176105f25760209183916135ba83398c81520301908bf09687156105e7576001600160a01b0397881698978516978a3b156105c3578b80808d60248d604051948593849263058a628f60e01b845260048401525af180156105c7576105d2575b508b3b1561015c5780808d60248e60405194859384926333e120f760e11b845260048401525af180156105c7576105ae575b508b90528b60205260408c20336bffffffffffffffffffffffff60a01b825416179055606460208d604051928380926323b872dd60e01b8252336004830152306024830152876044830152865af19081156105a3578d91610584575b50156105755760208c9160448d604051948593849263095ea7b360e01b845260048401528760248401525af190811561056a578c9161053b575b501561052c57908a92918a3b15610528578392838c60246040518097819363b6b55f2560e01b83528760048401525af190811561051d578a958d958d936104f7575b5050906104437f3b855a41a9cacb139cd184e2f36d8eef69d931b8d3cb0f6593056939f69105499392604051938493845260208401526060604084015233956060840191610803565b0390a4606484013580151581036104ef57610470575b606087878760405192835260208301526040820152f35b600484013590602219018112156104f35783019160048301359267ffffffffffffffff84116104ef576024019183360383136104ef576024850135946001600160a01b03861686036104eb5760440135986001600160801b038a168a0361015c57509160609893916104e495933391610823565b5f80610459565b8980fd5b8880fd5b8780fd5b909395508391965061050992506107b5565b6105195789918989948d5f6103fa565b8a80fd5b6040513d87823e3d90fd5b8380fd5b633e3f8f7360e01b8b5260048bfd5b61055d915060203d602011610563575b61055581836107b5565b8101906107eb565b5f6103b8565b503d61054b565b6040513d8e823e3d90fd5b6312171d8360e31b8c5260048cfd5b61059d915060203d6020116105635761055581836107b5565b5f61037e565b6040513d8f823e3d90fd5b816105b8916107b5565b6105c3578b5f610322565b8b80fd5b6040513d84823e3d90fd5b816105dc916107b5565b6105c3578b5f6102f0565b6040513d8c823e3d90fd5b634e487b7160e01b8d52604160045260248dfd5b6040513d8a823e3d90fd5b634e487b7160e01b8b52604160045260248bfd5b6040513d89823e3d90fd5b634e487b7160e01b8a52604160045260248afd5b63162908e360e11b8752600487fd5b8680fd5b8580fd5b503461015c57602036600319011261015c576020906001600160a01b03610680610771565b168152808252604060018060a01b0391205416604051908152f35b90503461075e57604036600319011261075e576106b6610771565b6001600160a01b039081165f8181526020819052604090205460243593919216330361076257813b1561075e5763884e17f360e01b8152600481018390523360248201525f8160448183865af180156107535761073e575b506040519182527f26c0bb14e11e9523f44f08b2a825dca537906e0f69f7f106adddb627407287b260203393a380f35b61074b9193505f906107b5565b5f915f61070e565b6040513d5f823e3d90fd5b5f80fd5b6326b9cdff60e11b5f5260045ffd5b600435906001600160a01b038216820361075e57565b9181601f8401121561075e5782359167ffffffffffffffff831161075e576020838186019501011161075e57565b90601f8019910116810190811067ffffffffffffffff8211176107d757604052565b634e487b7160e01b5f52604160045260245ffd5b9081602091031261075e5751801515810361075e5790565b908060209392818452848401375f828201840152601f01601f1916010190565b5f97919691959294909390926001600160a01b03811615610b55576001600160801b03831615610b4657604051602081019060a0825261089e8161086b60c082018988610803565b4260408301526001600160a01b038b8116606084015286811660808401528a1660a083015203601f1981018352826107b5565b519020986001600160a01b0386163b1561075e57604051630fd249b560e41b8152600481018b90525f602482018190526001600160a01b03891660448301526001600160801b03861660648301526001608483015260c060a4830152818061090a60c482018a89610803565b0381836001600160a01b038c165af1801561075357610b33575b50604080516001600160a01b038416602082018181529282018d90526060820152633a20820d60e11b608080830191909152815261096360a0826107b5565b5190209860405190610100820182811067ffffffffffffffff821117610b1f576040908152600183526001600160a01b03858116602085018181529285018f815260608601918252633a20820d60e11b608087019081526001600160801b038b1660a088019081524267ffffffffffffffff1660c089015260e088018990529196949594939192909185163b156104f357938f9260e0610124956001600160801b0367ffffffffffffffff938c9a99968b976040519d8e9c8d9b63c2b7df4b891b8d5260048d01528651151560248d015260018060a01b0390511660448c01525160648b015260018060a01b0390511660848a015263ffffffff851b90511660a4890152511660c48701528260c08201511660e487015201511661010484015260018060a01b03165af180156105c757610b0a575b5050604080518a8152602081018a90526001600160801b03909416908401526080606084018190526001600160a01b0391821696821695909116937f45a0e7c978f4ebb1aaad5ad22d6ec27a590fc8be04d98fc8f7ab5a8d526e74f293928392610b059290840191610803565b0390a4565b610b158280926107b5565b61015c5780610a98565b634e487b7160e01b84526041600452602484fd5b610b3f91505f906107b5565b5f5f610924565b63162908e360e11b5f5260045ffd5b63bebdc75760e01b5f5260045ffdfe60a034607357601f610a7338819003918201601f19168301916001600160401b03831184841017607757808492602094604052833981010312607357516001600160a01b03811681036073576080526040516109e7908161008c823960805181818160e80152818161032e015261041d0152f35b5f80fd5b634e487b7160e01b5f52604160045260245ffdfe6080806040526004361015610012575f80fd5b5f3560e01c908163216b857714610490575080632f9c1c79146100aa5780633d1ed3d314610407578063652f2f971461035d5780638da5cb5b146103195780639c4ae6c1146102fc578063c2b7df4b146100c4578063c5d8412b146100aa5763d1aaaeae1461007f575f80fd5b346100a657602061009e6100923661052e565b94939093929192610684565b604051908152f35b5f80fd5b346100a6575f3660031901126100a65760206040515f8152f35b346100a6576101203660031901126100a6576004356101003660231901126100a6577f00000000000000000000000000000000000000000000000000000000000000006001600160a01b031633036102ed576001600160401b036101266105ca565b161515806102ca575b6102bb57805f525f60205260405f20906101476105f7565b82549015159060ff610100600160a81b03610160610606565b60081b169216906affffffffffffffffffffff60a81b1617178255606435918260018201556002810160018060a01b0361019861061c565b8254911663ffffffff60a01b806101ad610632565b60401c1616916001600160401b0360c01b161717905560036001600160801b036101d5610649565b1667ffffffffffffffff60801b6101ea6105e1565b60801b16906001600160c01b03196102006105ca565b60c01b16911717910155610212610606565b907fbedb131865adc358f32f1dcff64365495d0f56826b94859de0900e0169fd5ac160c061023e61061c565b93610247610632565b6001600160401b03610257610649565b816102606105e1565b6001600160801b036102706105ca565b936102796105f7565b966040519c60018060a01b03168d5263ffffffff60e01b1660208d01521660408b0152166060890152166080870152151560a086015260018060a01b031693a4005b63392334ed60e01b5f5260045ffd5b506102d36105ca565b6001600160401b03806102e46105e1565b1691161061012f565b635fc483c560e01b5f5260045ffd5b346100a657602061030f6100923661052e565b1515604051908152f35b346100a6575f3660031901126100a6576040517f00000000000000000000000000000000000000000000000000000000000000006001600160a01b03168152602090f35b346100a65760803660031901126100a6576004356001600160a01b03811681036100a657604435906001600160a01b03821682036100a6576064356001600160e01b0319811681036100a657604080516001600160a01b039384166020828101918252602435938301939093529390941660608501526001600160e01b03199091166080840152916103fc8160a081015b03601f198101835282610595565b519020604051908152f35b346100a65760203660031901126100a6576004357f00000000000000000000000000000000000000000000000000000000000000006001600160a01b031633036102ed57805f525f6020525f60036040822082815582600182015582600282015501557ffe748b9dc635f4aa653a35208f28d263404f931f8d53f6f577394eb09eee0e995f80a2005b346100a65760203660031901126100a657610100906004355f525f60205260405f208054906001810154600360028301549201549260ff81161515855260018060a01b039060081c166020850152604084015260018060a01b038116606084015263ffffffff60e01b9060401b1660808301526001600160801b03811660a08301526001600160401b038160801c1660c083015260c01c60e0820152f35b60c09060031901126100a6576004356001600160a01b03811681036100a65790602435906044356001600160a01b03811681036100a65790606435906084356001600160e01b0319811681036100a6579060a4356001600160401b03811681036100a65790565b90601f801991011681019081106001600160401b038211176105b657604052565b634e487b7160e01b5f52604160045260245ffd5b610104356001600160401b03811681036100a65790565b60e4356001600160401b03811681036100a65790565b60243580151581036100a65790565b6044356001600160a01b03811681036100a65790565b6084356001600160a01b03811681036100a65790565b60a4356001600160e01b0319811681036100a65790565b60c4356001600160801b03811681036100a65790565b9060048110156106705760051b0190565b634e487b7160e01b5f52603260045260245ffd5b92949193909460405194608086018681106001600160401b038211176105b65760408181526001600160a01b03808816602084019081529183018a9052831660608301526001600160e01b031985166080830152906106e68160a081016103ee565b5190208652604080516001600160a01b03878116602083018181529383018b905290841660608301525f6080808401919091528252919061072860a082610595565b519020602088015260405160208101908282528960408201525f606082015263ffffffff60e01b861660808201526080815261076560a082610595565b5190206040880152604051602081019182528860408201525f60608201525f60808201526080815261079860a082610595565b51902060608701525f5b600481106107b65750505050505050505f90565b6107c0818861065f565b515f525f60205260405f2060405161010081018181106001600160401b038211176105b65785858c8b8b956003610870988d97604052805460ff81161515845260018060a01b039060081c16602084015260018101546040840152600281015460018060a01b038116606085015263ffffffff60e01b9060401b16608084015201546001600160801b03811660a08301526001600160401b038160801c1660c083015260c01c60e0820152610891565b61087c576001016107a2565b9594505050505061088d925061065f565b5190565b949291908551156109a65760208601516001600160a01b0390811691160361099c576040850151036109935760608401516001600160a01b0316801515918261097f575b50506109775760808301516001600160e01b0319168015159182610962575b505061095b576001600160801b0360a08301511610610955576001600160401b038060c08301511692169182106109555760e001516001600160401b0316801515918261094b575b505061094757600190565b5f90565b1190505f8061093c565b50505f90565b5050505f90565b6001600160e01b031916141590505f806108f4565b505050505f90565b6001600160a01b0316141590505f806108d5565b50505050505f90565b5050505050505f90565b505050505050505f9056fea2646970667358221220b751f090206624dd5769f8a5e6ab9a6fd322b36ff172783ff6427c7d68f2d7c864736f6c6343000821003360e0806040523461012557604081611fe2803803809161001f8285610129565b8339810103126101255780610042602061003b61005794610160565b9201610160565b6001600160a01b03821660805260a052610174565b60c052604051611dd3908161020f82396080518181816102be0152818161048f015281816105c30152818161089301528181610a9d01528181611000015281816114d2015281816116490152818161174d01528181611c090152611ca1015260a051818181610147015281816102500152818161042001528181610786015281816107d501528181610ebd01528181610f830152611126015260c051818181610280015281816104500152818161060301528181610730015281816108190152818161144a015261160a0152f35b5f80fd5b601f909101601f19168101906001600160401b0382119082101761014c57604052565b634e487b7160e01b5f52604160045260245ffd5b51906001600160a01b038216820361012557565b5f809160405160208101906301afd7c160e11b825260048152610198602482610129565b51915afa3d15610206573d906001600160401b03821161014c57604051916101ca601f8201601f191660200184610129565b82523d5f602084013e5b1580156101fb575b6101f6576020818051810103126101255760200151151590565b505f90565b5060208151106101dc565b6060906101d456fe60806040526004361015610011575f80fd5b5f5f3560e01c8063058a628f1461110b578063214a6a18146110ed5780633368f8991461104957806337a64c9f1461102f57806338d52e0f14610feb57806347e3206e14610f5b57806358f9403114610f3e57806367c241ee14610ea25780637441041a146109b3578063884e17f3146107b55780638da5cb5b146107705780639da1144614610755578063a3ec1a9914610718578063b6b55f251461057f578063c30fd5f814610564578063c9a2e6f314610409578063d09edf31146103e0578063d9a7e366146103b6578063ea996b2f14610239578063ebf9c6e71461021a578063eeb64e31146101fc578063f1823baa146101de578063f99996b2146101b7578063fabaa28d146101945763fd249b501461012d575f80fd5b346101915761013b3661131d565b959695949093919291907f00000000000000000000000000000000000000000000000000000000000000006001600160a01b031633036101825761017f96976117f8565b80f35b635fc483c560e01b8752600487fd5b80fd5b503461019157806003193601126101915760206101af611608565b604051908152f35b5034610191578060031936011261019157546040516001600160a01b039091168152602090f35b50346101915780600319360112610191576020600354604051908152f35b50346101915780600319360112610191576020600254604051908152f35b50346101915760203660031901126101915760206101af600435611572565b5034610191576020366003190112610191576004357f00000000000000000000000000000000000000000000000000000000000000006001600160a01b031633036103a7577f0000000000000000000000000000000000000000000000000000000000000000610357576040516370a0823160e01b81523060048201526020816024817f00000000000000000000000000000000000000000000000000000000000000006001600160a01b03165afa90811561039c578391610366575b5081116103575760035490806003556004546103106114b7565b10610348577faabe1d7cfaf9e682f1bccf091c0fbfa5d7f370b5d9dfde436fcefd9d0f3826009160409182519182526020820152a180f35b63d0733fcf60e01b8352600483fd5b630a9211eb60e11b8252600482fd5b90506020813d602011610394575b816103816020938361122d565b8101031261039057515f6102f6565b5f80fd5b3d9150610374565b6040513d85823e3d90fd5b635fc483c560e01b8252600482fd5b50346101915760203660031901126101915760406020916004358152600683522054604051908152f35b50346101915780600319360112610191576001546040516001600160a01b039091168152602090f35b5034610191576020366003190112610191576004357f00000000000000000000000000000000000000000000000000000000000000006001600160a01b031633036103a7577f000000000000000000000000000000000000000000000000000000000000000015610555576040516370a0823160e01b81523060048201526020816024817f00000000000000000000000000000000000000000000000000000000000000006001600160a01b03165afa801561039c578390610521575b6104d09150611bdc565b81116103575760025490806002556004546104e96114b7565b10610348577f3a9f8971b04816987a392fffedb0f56c86a60a0e13934d9430d7e2b452dd45569160409182519182526020820152a180f35b506020813d60201161054d575b8161053b6020938361122d565b81010312610390576104d090516104c6565b3d915061052e565b6304689d6560e41b8252600482fd5b503461019157806003193601126101915760206101af611556565b5034610191576020366003190112610191576004358015610709576040516323b872dd60e01b815233600482015230602482015260448101829052602081606481867f00000000000000000000000000000000000000000000000000000000000000006001600160a01b03165af190811561039c5783916106da575b50156106cb577f0000000000000000000000000000000000000000000000000000000000000000156106815761063b61063382611bdc565b60025461138a565b80600255610647611c7a565b90604051928352602083015260408201527f91ede45f04a37a7c170f5c1207df3b6bc748dc1e04ad5e917a241d0f52feada360603392a280f35b61068d8160035461138a565b8060035560405191825260208201528160408201527f91ede45f04a37a7c170f5c1207df3b6bc748dc1e04ad5e917a241d0f52feada360603392a280f35b6312171d8360e31b8252600482fd5b6106fc915060203d602011610702575b6106f4818361122d565b81019061147f565b5f6105fb565b503d6106ea565b631f2a200560e01b8252600482fd5b503461019157806003193601126101915760206040517f000000000000000000000000000000000000000000000000000000000000000015158152f35b503461019157806003193601126101915760206101af6114b7565b50346101915780600319360112610191576040517f00000000000000000000000000000000000000000000000000000000000000006001600160a01b03168152602090f35b5034610191576040366003190112610191576004356107d26111af565b907f00000000000000000000000000000000000000000000000000000000000000006001600160a01b031633036109a457801561099557610811611448565b8111610986577f00000000000000000000000000000000000000000000000000000000000000001561095b5761084681611bdc565b60025480821161094c579061085a91611397565b6002555b60405163a9059cbb60e01b81526001600160a01b039283166004820181905260248201839052926020908290604490829088907f0000000000000000000000000000000000000000000000000000000000000000165af1908115610941578491610922575b5015610913576004546108d46114b7565b106103485760407f217ea3989b9d3112d2133a930216f444b7fbcaeaa4d5bc0220d099fdc928e71e91610905611448565b82519182526020820152a280f35b6312171d8360e31b8352600483fd5b61093b915060203d602011610702576106f4818361122d565b5f6108c3565b6040513d86823e3d90fd5b631de2eac560e31b8552600485fd5b600354808211610977578161096f91611397565b60035561085e565b631de2eac560e31b8452600484fd5b631de2eac560e31b8352600483fd5b631f2a200560e01b8352600483fd5b635fc483c560e01b8352600483fd5b503461039057610100366003190112610390576004356109d16111af565b90604435906001600160801b03821680920361039057606435926084359260a43560c43560e43567ffffffffffffffff811161039057610a159036906004016112ef565b9190928415610e93578715610e8457865f52600560205260405f209460ff60018701541615610e755785548060801c906001600160801b03610a57848461138a565b911610610e6657610a67896113a4565b8211610e57576001546001600160a01b031680610db657505f965b8715610da8576040516370a0823160e01b81523060048201527f00000000000000000000000000000000000000000000000000000000000000006001600160a01b03169290602081602481875afa908115610ce8575f91610d76575b50610ae7611448565b808210610cf357610af791611397565b8411610cf35783016001600160801b038111610d625781546001600160801b031660809190911b6fffffffffffffffffffffffffffffffff191617905560405163a9059cbb60e01b81526001600160a01b039098166004890181905260248901839052976020816044815f865af1908115610ce8575f91610d43575b5015610d34576020602491604051928380926370a0823160e01b82523060048301525afa908115610ce8575f91610d02575b50610bae611448565b11610cf3575f546001600160a01b031680610c29575b5091610c2393917fb2c904fe90aeb046eff9514de454ec41230a8d8cd77c4b40043ea3c9e13196e297969593604051978897885233602089015260408801526060870152608086015260a085015260e060c085015260e0840191611497565b0390a480f35b803b15610390575f604051809263019291ef60e21b82528c60048301528d60248301528960448301523360648301528a60848301528460a48301528b60c48301528560e483015286610104830152610140610124830152818381610c938c8c610144840191611497565b03925af18015610ce85715610bc4577fb2c904fe90aeb046eff9514de454ec41230a8d8cd77c4b40043ea3c9e13196e297969593919b5091610cd95f610c23969461122d565b5f9b9193959697509193610bc4565b6040513d5f823e3d90fd5b63d0733fcf60e01b5f5260045ffd5b90506020813d602011610d2c575b81610d1d6020938361122d565b8101031261039057515f610ba5565b3d9150610d10565b6312171d8360e31b5f5260045ffd5b610d5c915060203d602011610702576106f4818361122d565b5f610b73565b634e487b7160e01b5f52601160045260245ffd5b90506020813d602011610da0575b81610d916020938361122d565b8101031261039057515f610ade565b3d9150610d84565b6282b42960e81b5f5260045ffd5b6040516368d5575760e11b8152336004820152602481018b90526001600160a01b038a16604482015260648101849052633a20820d60e11b60848201524267ffffffffffffffff1660a482015290602090829060c49082905afa908115610ce8575f91610e25575b5096610a82565b90506020813d602011610e4f575b81610e406020938361122d565b8101031261039057515f610e1e565b3d9150610e33565b6372c05ae160e01b5f5260045ffd5b6350b2c4e160e01b5f5260045ffd5b630da21d9760e11b5f5260045ffd5b63b4479ffd60e01b5f5260045ffd5b631f2a200560e01b5f5260045ffd5b3461039057602036600319011261039057610ebb611199565b7f00000000000000000000000000000000000000000000000000000000000000006001600160a01b03163303610f2f575f80546001600160a01b0319166001600160a01b039290921691821781557fb90e31d61ce8bb057d7bd67965e9726c54b416651b756620c9d31f17298545069080a2005b635fc483c560e01b5f5260045ffd5b34610390575f366003190112610390576020600454604051908152f35b3461039057610f693661131d565b5f87815260056020526040902095969095919492939291337f00000000000000000000000000000000000000000000000000000000000000006001600160a01b031614159081610fd3575b50610fc457610fc2966117f8565b005b63124316a360e21b5f5260045ffd5b600301546001600160a01b0316331415905088610fb4565b34610390575f366003190112610390576040517f00000000000000000000000000000000000000000000000000000000000000006001600160a01b03168152602090f35b34610390575f3660031901126103905760206101af611448565b34610390576020366003190112610390576004355f52600560205260405f2060e08154602060ff60018501541693600281015490611096600460018060a01b03600384015416920161124f565b9160405196856001600160801b03899716875260801c85870152151560408601526060850152608084015260c060a084015280519182918260c0860152018484015e5f828201840152601f01601f19168101030190f35b346103905760203660031901126103905760206101af6004356113a4565b3461039057602036600319011261039057611124611199565b7f00000000000000000000000000000000000000000000000000000000000000006001600160a01b03163303610f2f57600180546001600160a01b0319166001600160a01b039290921691821790557ff3f625a7d9e02778afdfdf1bea978d6565840d408866c70f5d25aadf77021d705f80a2005b600435906001600160a01b038216820361039057565b602435906001600160a01b038216820361039057565b90600182811c921680156111f3575b60208310146111df57565b634e487b7160e01b5f52602260045260245ffd5b91607f16916111d4565b60c0810190811067ffffffffffffffff82111761121957604052565b634e487b7160e01b5f52604160045260245ffd5b90601f8019910116810190811067ffffffffffffffff82111761121957604052565b9060405191825f825492611262846111c5565b80845293600181169081156112cd5750600114611289575b506112879250038361122d565b565b90505f9291925260205f20905f915b8183106112b1575050906020611287928201015f61127a565b6020919350806001915483858901015201910190918492611298565b90506020925061128794915060ff191682840152151560051b8201015f61127a565b9181601f840112156103905782359167ffffffffffffffff8311610390576020838186019501011161039057565b9060c06003198301126103905760043591602435916044356001600160a01b038116810361039057916064356001600160801b038116810361039057916084358015158103610390579160a4359067ffffffffffffffff821161039057611386916004016112ef565b9091565b91908201809211610d6257565b91908203918211610d6257565b805f5260056020526001600160801b0361142a60405f20604051936113c8856111fd565b61141060048354938685168852602088019460801c855260ff600182015416151560408901526002810154606089015260018060a01b0360038201541660808901520161124f565b60a08601525f5260066020528260405f205491511661138a565b91511690808211156114425761143f91611397565b90565b50505f90565b7f0000000000000000000000000000000000000000000000000000000000000000156114795761143f600254611721565b60035490565b90816020910312610390575180151581036103905790565b908060209392818452848401375f828201840152601f01601f1916010190565b6040516370a0823160e01b81523060048201526020816024817f00000000000000000000000000000000000000000000000000000000000000006001600160a01b03165afa908115610ce8575f91611524575b50611513611448565b808211156114425761143f91611397565b90506020813d60201161154e575b8161153f6020938361122d565b8101031261039057515f61150a565b3d9150611532565b61155e6114b7565b600454808211156114425761143f91611397565b5f52600560205260405f206001600160801b0380604051611592816111fd565b6115da60048554958487168452602084019660801c875260ff600182015416151560408501526002810154606085015260018060a01b0360038201541660808501520161124f565b60a08201525116915116908181111561144257036001600160801b038111610d62576001600160801b031690565b7f0000000000000000000000000000000000000000000000000000000000000000156116d2576040516370a0823160e01b81523060048201526020816024817f00000000000000000000000000000000000000000000000000000000000000006001600160a01b03165afa8015610ce8575f9061169e575b61168a9150611bdc565b600254808211156114425761143f91611397565b506020813d6020116116ca575b816116b86020938361122d565b810103126103905761168a9051611680565b3d91506116ab565b5f90565b67ffffffffffffffff811161121957601f01601f191660200190565b3d1561171c573d90611703826116d6565b91611711604051938461122d565b82523d5f602084013e565b606090565b5f80604051602081019062b0e38960e81b82528460248201526024815261174960448261122d565b51907f00000000000000000000000000000000000000000000000000000000000000006001600160a01b03165afa61177f6116f2565b90806117ec575b6117d35750611793611c7a565b90670de0b6b3a7640000810290808204670de0b6b3a76400001490151715610d625781156117bf570490565b634e487b7160e01b5f52601260045260245ffd5b8051602080830193509082019190910312610390575190565b50602081511015611786565b9296959093949196835f52600560205260405f208054916001600160801b0383169060028301546001600160801b0361183085611d12565b92169460801c8510610e665788881480611bd3575b611bb957889082611bc8575b5050611bb95786611b365782611878835460801c885f52600660205260405f20549061138a565b11610e57578261188d61189292600454611397565b61138a565b8060045561189e6114b7565b10610cf3575b5460801c976040516118b5816111fd565b82815260208101998a526040810197151591828952606082018881526080830191600160a01b6001900316998a83526118ed876116d6565b9c876040519e8f906118ff908261122d565b5236888a011161039057878e818b6020830137016020015f905260a085019d8e52895f52600560205260405f2094516001600160801b03166001600160801b0319865416178555516001600160801b031661196f9085906001600160801b0382549181199060801b169116179055565b600184019051151560ff198254169060ff161790555160028301556003820190600160a01b600190039051166bffffffffffffffffffffffff60a01b825416179055600401985198895167ffffffffffffffff8111611219576119d282546111c5565b601f8111611ae5575b506020601f8211600114611a5e5781907f09e01d9a5aeccfc6a2c7dd24eaf17914fe879e6d3fb4db39f728f6932c95ba5298999a9b9c5f92611a53575b50508160011b915f199060031b1c19161790555b611a43604051948594606086526060860191611497565b91602084015260408301520390a4565b015190505f80611a18565b601f1982169b835f52815f209c5f5b818110611acd5750917f09e01d9a5aeccfc6a2c7dd24eaf17914fe879e6d3fb4db39f728f6932c95ba52999a9b9c9d91846001959410611ab5575b505050811b019055611a2c565b01515f1960f88460031b161c191690555f8080611aa8565b838301518f556001909e019d60209384019301611a6d565b818111156119db57825f5260205f20601f830160051c9060208410611b2e575b81601f9101920160051c03905f5b828110611b215750506119db565b5f82820155600101611b13565b5f9150611b05565b865f52600560205260405f2090611b4c82611d12565b15611baa578361188d611b6b928a5f52600660205260405f2054611397565b90546001600160801b03611b82838360801c61138a565b911610611b9b57865f52600660205260405f20556118a4565b6332f5bbcf60e11b5f5260045ffd5b6342b22e7960e01b5f5260045ffd5b63167daf1f60e01b5f5260045ffd5b14159050875f611851565b50881515611845565b5f806040516020810190632eca54bf60e21b825284602482015260248152611c0560448261122d565b51907f00000000000000000000000000000000000000000000000000000000000000006001600160a01b03165afa611c3b6116f2565b9080611c6e575b6117d35750611c4f611c7a565b90818102918183041490151715610d6257670de0b6b3a7640000900490565b50602081511015611c42565b5f8060405160208101906301afd7c160e11b825260048152611c9d60248261122d565b51907f00000000000000000000000000000000000000000000000000000000000000006001600160a01b03165afa611cd36116f2565b90158015611d07575b611cf85760208151918180820193849201010312610390575190565b6304689d6560e41b5f5260045ffd5b506020815110611cdc565b8054906001600160801b0382161591821592611d90575b508115611d81575b8115611d73575b8115611d5c575b8115611d49575090565b611d579150600401546111c5565b151590565b60038101546001600160a01b031615159150611d3f565b600281015415159150611d38565b600181015460ff169150611d31565b60801c151591505f611d2956fea264697066735822122040db30f86378e4483ba1d36f80ae6e835a854899100e8ec6942a588d7d01fea464736f6c6343000821003360a034606d57601f61073e38819003918201601f19168301916001600160401b03831184841017607157808492602094604052833981010312606d57516001600160a01b0381168103606d576080526040516106b8908161008682396080518181816101b9015261026b0152f35b5f80fd5b634e487b7160e01b5f52604160045260245ffdfe60806040526004361015610011575f80fd5b5f3560e01c8063064a47bc146101e857806361d027b3146101a45763ef6cf04d1461003a575f80fd5b346101a05760203660031901126101a0576004355f525f60205260405f20805460018201549060018060a01b0360028401541660018060a01b0360038501541690600485015491600586015460068701546007880154916008890195604051945f8854986100a78a610628565b90818952602089019a6001811690815f146101825750600114610144575b505060096101609b9c6100e38967ffffffffffffffff94038a610660565b015416966040519b8c9a8b5260208b015260408a01526060890152608088015260a087015260c086015260e0850152610140610100850152518092816101408601528585015e5f838301850152610120830152601f01601f19168101030190f35b5f908152602081209092505b818310610168575050860160200160096101606100c5565b6001816020929493945483858d0101520191019190610150565b60ff19168c525050151560051b8701602001905060096101606100c5565b5f80fd5b346101a0575f3660031901126101a0576040517f00000000000000000000000000000000000000000000000000000000000000006001600160a01b03168152602090f35b346101a0576101403660031901126101a0576044356024356064356001600160a01b03811681036101a057608435906001600160a01b03821682036101a057610124359167ffffffffffffffff83116101a057366023840112156101a05767ffffffffffffffff8360040135116101a0573660248460040135850101116101a0577f00000000000000000000000000000000000000000000000000000000000000006001600160a01b03163303610619576004351561060a576004355f525f60205267ffffffffffffffff600960405f200154166105fb576101c06040819052608085905260a08690526001600160a01b0383811660c052821660e05260a4356101005260c4356101205260e43561014052610104356101605261031a6004850135601f01601f191660200182610660565b60048401358082526024850160208301375f60206004868101358401820183905261018084905267ffffffffffffffff4281166101a05281358452918390526040909220608051815560a051600182015560c0516002820180546001600160a01b039283166001600160a01b03199182161790915560e0516003840180549190931691161790556101005192810192909255610120516005830155610140516006830155610160516007830155825191929082116105e7576103df6008840154610628565b601f8111610593575b50602090601f83116001146105025791807f14acb00ae67f7a38ab3b368b0558584cc6792dd012d85bc6a10f9784dda8e46c969594926009945f926104f7575b50508160011b915f199060031b1c19161760088201555b0167ffffffffffffffff610120608001511667ffffffffffffffff198254161790556040519160018060a01b0316825260018060a01b0316602082015260a435604082015260c435606082015260e43560808201526101043560a082015261010060c082015282600401356101008201528260040135602484016101208301375f61012084600401358301015267ffffffffffffffff421660e08201526101208160043594601f8019916004013501168101030190a4005b015190508a80610428565b90600884015f52805f20915f5b601f198516811061057b5750927f14acb00ae67f7a38ab3b368b0558584cc6792dd012d85bc6a10f9784dda8e46c9695949260019260099583601f19811610610563575b505050811b01600882015561043f565b01515f1960f88460031b161c191690558a8080610553565b9192602060018192868501518155019401920161050f565b828111156103e857600884015f5260205f20601f840160051c90602085106105df575b81601f9101920160051c03905f5b8281106105d25750506103e8565b5f828201556001016105c4565b5f91506105b6565b634e487b7160e01b5f52604160045260245ffd5b6368d95fdf60e11b5f5260045ffd5b63b4479ffd60e01b5f5260045ffd5b632298d39d60e11b5f5260045ffd5b90600182811c92168015610656575b602083101461064257565b634e487b7160e01b5f52602260045260245ffd5b91607f1691610637565b90601f8019910116810190811067ffffffffffffffff8211176105e75760405256fea26469706673582212202a4fd54f8142a3a4bcf4b1f593d99c8304bf6a8ca90335e6acacf2797542088064736f6c63430008210033a26469706673582212201b21a59f4599f354953d81833b7d621da3cbb5c1bbf6a4ff5cde816dc3cb53b464736f6c63430008210033","linkReferences":{}},"methodIdentifiers":{"assignAllowance(address,string,address,uint128)":"e98e6f9a","bootstrapTreasury(address,uint256,string,(string,address,uint128,bool))":"984f91b7","treasuryOperator(address)":"9220d3ed","withdrawPrincipal(address,uint256)":"71b81008"},"id":21}