{"abi":[{"type":"constructor","inputs":[{"name":"treasury_","type":"address","internalType":"address"}],"stateMutability":"nonpayable"},{"type":"function","name":"receipts","inputs":[{"name":"","type":"bytes32","internalType":"bytes32"}],"outputs":[{"name":"taskId","type":"bytes32","internalType":"bytes32"},{"name":"ruleId","type":"bytes32","internalType":"bytes32"},{"name":"executor","type":"address","internalType":"address"},{"name":"recipient","type":"address","internalType":"address"},{"name":"amount","type":"uint256","internalType":"uint256"},{"name":"budgetId","type":"bytes32","internalType":"bytes32"},{"name":"evidenceHash","type":"bytes32","internalType":"bytes32"},{"name":"resultHash","type":"bytes32","internalType":"bytes32"},{"name":"metadataURI","type":"string","internalType":"string"},{"name":"timestamp","type":"uint64","internalType":"uint64"}],"stateMutability":"view"},{"type":"function","name":"registerReceipt","inputs":[{"name":"receiptHash","type":"bytes32","internalType":"bytes32"},{"name":"taskId","type":"bytes32","internalType":"bytes32"},{"name":"ruleId","type":"bytes32","internalType":"bytes32"},{"name":"executor","type":"address","internalType":"address"},{"name":"recipient","type":"address","internalType":"address"},{"name":"amount","type":"uint256","internalType":"uint256"},{"name":"budgetId","type":"bytes32","internalType":"bytes32"},{"name":"evidenceHash","type":"bytes32","internalType":"bytes32"},{"name":"resultHash","type":"bytes32","internalType":"bytes32"},{"name":"metadataURI","type":"string","internalType":"string"}],"outputs":[],"stateMutability":"nonpayable"},{"type":"function","name":"treasury","inputs":[],"outputs":[{"name":"","type":"address","internalType":"address"}],"stateMutability":"view"},{"type":"event","name":"ReceiptRegistered","inputs":[{"name":"receiptHash","type":"bytes32","indexed":true,"internalType":"bytes32"},{"name":"taskId","type":"bytes32","indexed":true,"internalType":"bytes32"},{"name":"ruleId","type":"bytes32","indexed":true,"internalType":"bytes32"},{"name":"executor","type":"address","indexed":false,"internalType":"address"},{"name":"recipient","type":"address","indexed":false,"internalType":"address"},{"name":"amount","type":"uint256","indexed":false,"internalType":"uint256"},{"name":"budgetId","type":"bytes32","indexed":false,"internalType":"bytes32"},{"name":"evidenceHash","type":"bytes32","indexed":false,"internalType":"bytes32"},{"name":"resultHash","type":"bytes32","indexed":false,"internalType":"bytes32"},{"name":"metadataURI","type":"string","indexed":false,"internalType":"string"},{"name":"timestamp","type":"uint64","indexed":false,"internalType":"uint64"}],"anonymous":false},{"type":"error","name":"EmptyReceiptHash","inputs":[]},{"type":"error","name":"OnlyTreasury","inputs":[]},{"type":"error","name":"ReceiptAlreadyExists","inputs":[]}],"bytecode":{"object":"0x60a034606d57601f61073e38819003918201601f19168301916001600160401b03831184841017607157808492602094604052833981010312606d57516001600160a01b0381168103606d576080526040516106b8908161008682396080518181816101b9015261026b0152f35b5f80fd5b634e487b7160e01b5f52604160045260245ffdfe60806040526004361015610011575f80fd5b5f3560e01c8063064a47bc146101e857806361d027b3146101a45763ef6cf04d1461003a575f80fd5b346101a05760203660031901126101a0576004355f525f60205260405f20805460018201549060018060a01b0360028401541660018060a01b0360038501541690600485015491600586015460068701546007880154916008890195604051945f8854986100a78a610628565b90818952602089019a6001811690815f146101825750600114610144575b505060096101609b9c6100e38967ffffffffffffffff94038a610660565b015416966040519b8c9a8b5260208b015260408a01526060890152608088015260a087015260c086015260e0850152610140610100850152518092816101408601528585015e5f838301850152610120830152601f01601f19168101030190f35b5f908152602081209092505b818310610168575050860160200160096101606100c5565b6001816020929493945483858d0101520191019190610150565b60ff19168c525050151560051b8701602001905060096101606100c5565b5f80fd5b346101a0575f3660031901126101a0576040517f00000000000000000000000000000000000000000000000000000000000000006001600160a01b03168152602090f35b346101a0576101403660031901126101a0576044356024356064356001600160a01b03811681036101a057608435906001600160a01b03821682036101a057610124359167ffffffffffffffff83116101a057366023840112156101a05767ffffffffffffffff8360040135116101a0573660248460040135850101116101a0577f00000000000000000000000000000000000000000000000000000000000000006001600160a01b03163303610619576004351561060a576004355f525f60205267ffffffffffffffff600960405f200154166105fb576101c06040819052608085905260a08690526001600160a01b0383811660c052821660e05260a4356101005260c4356101205260e43561014052610104356101605261031a6004850135601f01601f191660200182610660565b60048401358082526024850160208301375f60206004868101358401820183905261018084905267ffffffffffffffff4281166101a05281358452918390526040909220608051815560a051600182015560c0516002820180546001600160a01b039283166001600160a01b03199182161790915560e0516003840180549190931691161790556101005192810192909255610120516005830155610140516006830155610160516007830155825191929082116105e7576103df6008840154610628565b601f8111610593575b50602090601f83116001146105025791807f14acb00ae67f7a38ab3b368b0558584cc6792dd012d85bc6a10f9784dda8e46c969594926009945f926104f7575b50508160011b915f199060031b1c19161760088201555b0167ffffffffffffffff610120608001511667ffffffffffffffff198254161790556040519160018060a01b0316825260018060a01b0316602082015260a435604082015260c435606082015260e43560808201526101043560a082015261010060c082015282600401356101008201528260040135602484016101208301375f61012084600401358301015267ffffffffffffffff421660e08201526101208160043594601f8019916004013501168101030190a4005b015190508a80610428565b90600884015f52805f20915f5b601f198516811061057b5750927f14acb00ae67f7a38ab3b368b0558584cc6792dd012d85bc6a10f9784dda8e46c9695949260019260099583601f19811610610563575b505050811b01600882015561043f565b01515f1960f88460031b161c191690558a8080610553565b9192602060018192868501518155019401920161050f565b828111156103e857600884015f5260205f20601f840160051c90602085106105df575b81601f9101920160051c03905f5b8281106105d25750506103e8565b5f828201556001016105c4565b5f91506105b6565b634e487b7160e01b5f52604160045260245ffd5b6368d95fdf60e11b5f5260045ffd5b63b4479ffd60e01b5f5260045ffd5b632298d39d60e11b5f5260045ffd5b90600182811c92168015610656575b602083101461064257565b634e487b7160e01b5f52602260045260245ffd5b91607f1691610637565b90601f8019910116810190811067ffffffffffffffff8211176105e75760405256fea26469706673582212202a4fd54f8142a3a4bcf4b1f593d99c8304bf6a8ca90335e6acacf2797542088064736f6c63430008210033","linkReferences":{}},"methodIdentifiers":{"receipts(bytes32)":"ef6cf04d","registerReceipt(bytes32,bytes32,bytes32,address,address,uint256,bytes32,bytes32,bytes32,string)":"064a47bc","treasury()":"61d027b3"},"id":20}