{"abi":[{"type":"constructor","inputs":[{"name":"owner_","type":"address","internalType":"address"}],"stateMutability":"nonpayable"},{"type":"function","name":"ANY_RECIPIENT","inputs":[],"outputs":[{"name":"","type":"address","internalType":"address"}],"stateMutability":"view"},{"type":"function","name":"ANY_SELECTOR","inputs":[],"outputs":[{"name":"","type":"bytes4","internalType":"bytes4"}],"stateMutability":"view"},{"type":"function","name":"computeRuleId","inputs":[{"name":"executor","type":"address","internalType":"address"},{"name":"budgetId","type":"bytes32","internalType":"bytes32"},{"name":"recipient","type":"address","internalType":"address"},{"name":"selector","type":"bytes4","internalType":"bytes4"}],"outputs":[{"name":"","type":"bytes32","internalType":"bytes32"}],"stateMutability":"pure"},{"type":"function","name":"findMatchingRuleId","inputs":[{"name":"executor","type":"address","internalType":"address"},{"name":"budgetId","type":"bytes32","internalType":"bytes32"},{"name":"recipient","type":"address","internalType":"address"},{"name":"amount","type":"uint256","internalType":"uint256"},{"name":"selector","type":"bytes4","internalType":"bytes4"},{"name":"currentTime","type":"uint64","internalType":"uint64"}],"outputs":[{"name":"","type":"bytes32","internalType":"bytes32"}],"stateMutability":"view"},{"type":"function","name":"isAuthorized","inputs":[{"name":"executor","type":"address","internalType":"address"},{"name":"budgetId","type":"bytes32","internalType":"bytes32"},{"name":"recipient","type":"address","internalType":"address"},{"name":"amount","type":"uint256","internalType":"uint256"},{"name":"selector","type":"bytes4","internalType":"bytes4"},{"name":"currentTime","type":"uint64","internalType":"uint64"}],"outputs":[{"name":"","type":"bool","internalType":"bool"}],"stateMutability":"view"},{"type":"function","name":"owner","inputs":[],"outputs":[{"name":"","type":"address","internalType":"address"}],"stateMutability":"view"},{"type":"function","name":"revokeRule","inputs":[{"name":"ruleId","type":"bytes32","internalType":"bytes32"}],"outputs":[],"stateMutability":"nonpayable"},{"type":"function","name":"rules","inputs":[{"name":"","type":"bytes32","internalType":"bytes32"}],"outputs":[{"name":"active","type":"bool","internalType":"bool"},{"name":"executor","type":"address","internalType":"address"},{"name":"budgetId","type":"bytes32","internalType":"bytes32"},{"name":"recipient","type":"address","internalType":"address"},{"name":"selector","type":"bytes4","internalType":"bytes4"},{"name":"maxAmount","type":"uint128","internalType":"uint128"},{"name":"validAfter","type":"uint64","internalType":"uint64"},{"name":"validUntil","type":"uint64","internalType":"uint64"}],"stateMutability":"view"},{"type":"function","name":"setRule","inputs":[{"name":"ruleId","type":"bytes32","internalType":"bytes32"},{"name":"rule","type":"tuple","internalType":"struct DelegationAuthorizer.Rule","components":[{"name":"active","type":"bool","internalType":"bool"},{"name":"executor","type":"address","internalType":"address"},{"name":"budgetId","type":"bytes32","internalType":"bytes32"},{"name":"recipient","type":"address","internalType":"address"},{"name":"selector","type":"bytes4","internalType":"bytes4"},{"name":"maxAmount","type":"uint128","internalType":"uint128"},{"name":"validAfter","type":"uint64","internalType":"uint64"},{"name":"validUntil","type":"uint64","internalType":"uint64"}]}],"outputs":[],"stateMutability":"nonpayable"},{"type":"event","name":"RuleRevoked","inputs":[{"name":"ruleId","type":"bytes32","indexed":true,"internalType":"bytes32"}],"anonymous":false},{"type":"event","name":"RuleSet","inputs":[{"name":"ruleId","type":"bytes32","indexed":true,"internalType":"bytes32"},{"name":"executor","type":"address","indexed":true,"internalType":"address"},{"name":"budgetId","type":"bytes32","indexed":true,"internalType":"bytes32"},{"name":"recipient","type":"address","indexed":false,"internalType":"address"},{"name":"selector","type":"bytes4","indexed":false,"internalType":"bytes4"},{"name":"maxAmount","type":"uint128","indexed":false,"internalType":"uint128"},{"name":"validAfter","type":"uint64","indexed":false,"internalType":"uint64"},{"name":"validUntil","type":"uint64","indexed":false,"internalType":"uint64"},{"name":"active","type":"bool","indexed":false,"internalType":"bool"}],"anonymous":false},{"type":"error","name":"InvalidWindow","inputs":[]},{"type":"error","name":"OnlyOwner","inputs":[]}],"bytecode":{"object":"0x60a034607357601f610a7338819003918201601f19168301916001600160401b03831184841017607757808492602094604052833981010312607357516001600160a01b03811681036073576080526040516109e7908161008c823960805181818160e80152818161032e015261041d0152f35b5f80fd5b634e487b7160e01b5f52604160045260245ffdfe6080806040526004361015610012575f80fd5b5f3560e01c908163216b857714610490575080632f9c1c79146100aa5780633d1ed3d314610407578063652f2f971461035d5780638da5cb5b146103195780639c4ae6c1146102fc578063c2b7df4b146100c4578063c5d8412b146100aa5763d1aaaeae1461007f575f80fd5b346100a657602061009e6100923661052e565b94939093929192610684565b604051908152f35b5f80fd5b346100a6575f3660031901126100a65760206040515f8152f35b346100a6576101203660031901126100a6576004356101003660231901126100a6577f00000000000000000000000000000000000000000000000000000000000000006001600160a01b031633036102ed576001600160401b036101266105ca565b161515806102ca575b6102bb57805f525f60205260405f20906101476105f7565b82549015159060ff610100600160a81b03610160610606565b60081b169216906affffffffffffffffffffff60a81b1617178255606435918260018201556002810160018060a01b0361019861061c565b8254911663ffffffff60a01b806101ad610632565b60401c1616916001600160401b0360c01b161717905560036001600160801b036101d5610649565b1667ffffffffffffffff60801b6101ea6105e1565b60801b16906001600160c01b03196102006105ca565b60c01b16911717910155610212610606565b907fbedb131865adc358f32f1dcff64365495d0f56826b94859de0900e0169fd5ac160c061023e61061c565b93610247610632565b6001600160401b03610257610649565b816102606105e1565b6001600160801b036102706105ca565b936102796105f7565b966040519c60018060a01b03168d5263ffffffff60e01b1660208d01521660408b0152166060890152166080870152151560a086015260018060a01b031693a4005b63392334ed60e01b5f5260045ffd5b506102d36105ca565b6001600160401b03806102e46105e1565b1691161061012f565b635fc483c560e01b5f5260045ffd5b346100a657602061030f6100923661052e565b1515604051908152f35b346100a6575f3660031901126100a6576040517f00000000000000000000000000000000000000000000000000000000000000006001600160a01b03168152602090f35b346100a65760803660031901126100a6576004356001600160a01b03811681036100a657604435906001600160a01b03821682036100a6576064356001600160e01b0319811681036100a657604080516001600160a01b039384166020828101918252602435938301939093529390941660608501526001600160e01b03199091166080840152916103fc8160a081015b03601f198101835282610595565b519020604051908152f35b346100a65760203660031901126100a6576004357f00000000000000000000000000000000000000000000000000000000000000006001600160a01b031633036102ed57805f525f6020525f60036040822082815582600182015582600282015501557ffe748b9dc635f4aa653a35208f28d263404f931f8d53f6f577394eb09eee0e995f80a2005b346100a65760203660031901126100a657610100906004355f525f60205260405f208054906001810154600360028301549201549260ff81161515855260018060a01b039060081c166020850152604084015260018060a01b038116606084015263ffffffff60e01b9060401b1660808301526001600160801b03811660a08301526001600160401b038160801c1660c083015260c01c60e0820152f35b60c09060031901126100a6576004356001600160a01b03811681036100a65790602435906044356001600160a01b03811681036100a65790606435906084356001600160e01b0319811681036100a6579060a4356001600160401b03811681036100a65790565b90601f801991011681019081106001600160401b038211176105b657604052565b634e487b7160e01b5f52604160045260245ffd5b610104356001600160401b03811681036100a65790565b60e4356001600160401b03811681036100a65790565b60243580151581036100a65790565b6044356001600160a01b03811681036100a65790565b6084356001600160a01b03811681036100a65790565b60a4356001600160e01b0319811681036100a65790565b60c4356001600160801b03811681036100a65790565b9060048110156106705760051b0190565b634e487b7160e01b5f52603260045260245ffd5b92949193909460405194608086018681106001600160401b038211176105b65760408181526001600160a01b03808816602084019081529183018a9052831660608301526001600160e01b031985166080830152906106e68160a081016103ee565b5190208652604080516001600160a01b03878116602083018181529383018b905290841660608301525f6080808401919091528252919061072860a082610595565b519020602088015260405160208101908282528960408201525f606082015263ffffffff60e01b861660808201526080815261076560a082610595565b5190206040880152604051602081019182528860408201525f60608201525f60808201526080815261079860a082610595565b51902060608701525f5b600481106107b65750505050505050505f90565b6107c0818861065f565b515f525f60205260405f2060405161010081018181106001600160401b038211176105b65785858c8b8b956003610870988d97604052805460ff81161515845260018060a01b039060081c16602084015260018101546040840152600281015460018060a01b038116606085015263ffffffff60e01b9060401b16608084015201546001600160801b03811660a08301526001600160401b038160801c1660c083015260c01c60e0820152610891565b61087c576001016107a2565b9594505050505061088d925061065f565b5190565b949291908551156109a65760208601516001600160a01b0390811691160361099c576040850151036109935760608401516001600160a01b0316801515918261097f575b50506109775760808301516001600160e01b0319168015159182610962575b505061095b576001600160801b0360a08301511610610955576001600160401b038060c08301511692169182106109555760e001516001600160401b0316801515918261094b575b505061094757600190565b5f90565b1190505f8061093c565b50505f90565b5050505f90565b6001600160e01b031916141590505f806108f4565b505050505f90565b6001600160a01b0316141590505f806108d5565b50505050505f90565b5050505050505f90565b505050505050505f9056fea2646970667358221220b751f090206624dd5769f8a5e6ab9a6fd322b36ff172783ff6427c7d68f2d7c864736f6c63430008210033","linkReferences":{}},"methodIdentifiers":{"ANY_RECIPIENT()":"c5d8412b","ANY_SELECTOR()":"2f9c1c79","computeRuleId(address,bytes32,address,bytes4)":"652f2f97","findMatchingRuleId(address,bytes32,address,uint256,bytes4,uint64)":"d1aaaeae","isAuthorized(address,bytes32,address,uint256,bytes4,uint64)":"9c4ae6c1","owner()":"8da5cb5b","revokeRule(bytes32)":"3d1ed3d3","rules(bytes32)":"216b8577","setRule(bytes32,(bool,address,bytes32,address,bytes4,uint128,uint64,uint64))":"c2b7df4b"},"id":19}